{
  "_format": "hh-sol-artifact-1",
  "contractName": "Dappcord",
  "sourceName": "contracts/Dappcord.sol",
  "abi": [
    {
      "inputs": [
        {
          "internalType": "string",
          "name": "_name",
          "type": "string"
        },
        {
          "internalType": "string",
          "name": "_symbol",
          "type": "string"
        }
      ],
      "stateMutability": "nonpayable",
      "type": "constructor"
    },
    {
      "anonymous": false,
      "inputs": [
        {
          "indexed": true,
          "internalType": "address",
          "name": "owner",
          "type": "address"
        },
        {
          "indexed": true,
          "internalType": "address",
          "name": "approved",
          "type": "address"
        },
        {
          "indexed": true,
          "internalType": "uint256",
          "name": "tokenId",
          "type": "uint256"
        }
      ],
      "name": "Approval",
      "type": "event"
    },
    {
      "anonymous": false,
      "inputs": [
        {
          "indexed": true,
          "internalType": "address",
          "name": "owner",
          "type": "address"
        },
        {
          "indexed": true,
          "internalType": "address",
          "name": "operator",
          "type": "address"
        },
        {
          "indexed": false,
          "internalType": "bool",
          "name": "approved",
          "type": "bool"
        }
      ],
      "name": "ApprovalForAll",
      "type": "event"
    },
    {
      "anonymous": false,
      "inputs": [
        {
          "indexed": true,
          "internalType": "address",
          "name": "from",
          "type": "address"
        },
        {
          "indexed": true,
          "internalType": "address",
          "name": "to",
          "type": "address"
        },
        {
          "indexed": true,
          "internalType": "uint256",
          "name": "tokenId",
          "type": "uint256"
        }
      ],
      "name": "Transfer",
      "type": "event"
    },
    {
      "inputs": [
        {
          "internalType": "address",
          "name": "to",
          "type": "address"
        },
        {
          "internalType": "uint256",
          "name": "tokenId",
          "type": "uint256"
        }
      ],
      "name": "approve",
      "outputs": [],
      "stateMutability": "nonpayable",
      "type": "function"
    },
    {
      "inputs": [
        {
          "internalType": "address",
          "name": "owner",
          "type": "address"
        }
      ],
      "name": "balanceOf",
      "outputs": [
        {
          "internalType": "uint256",
          "name": "",
          "type": "uint256"
        }
      ],
      "stateMutability": "view",
      "type": "function"
    },
    {
      "inputs": [
        {
          "internalType": "uint256",
          "name": "",
          "type": "uint256"
        }
      ],
      "name": "channels",
      "outputs": [
        {
          "internalType": "uint256",
          "name": "id",
          "type": "uint256"
        },
        {
          "internalType": "string",
          "name": "name",
          "type": "string"
        },
        {
          "internalType": "uint256",
          "name": "cost",
          "type": "uint256"
        }
      ],
      "stateMutability": "view",
      "type": "function"
    },
    {
      "inputs": [
        {
          "internalType": "string",
          "name": "_name",
          "type": "string"
        },
        {
          "internalType": "uint256",
          "name": "_cost",
          "type": "uint256"
        }
      ],
      "name": "createChannel",
      "outputs": [],
      "stateMutability": "nonpayable",
      "type": "function"
    },
    {
      "inputs": [
        {
          "internalType": "uint256",
          "name": "tokenId",
          "type": "uint256"
        }
      ],
      "name": "getApproved",
      "outputs": [
        {
          "internalType": "address",
          "name": "",
          "type": "address"
        }
      ],
      "stateMutability": "view",
      "type": "function"
    },
    {
      "inputs": [
        {
          "internalType": "uint256",
          "name": "_id",
          "type": "uint256"
        }
      ],
      "name": "getChannel",
      "outputs": [
        {
          "components": [
            {
              "internalType": "uint256",
              "name": "id",
              "type": "uint256"
            },
            {
              "internalType": "string",
              "name": "name",
              "type": "string"
            },
            {
              "internalType": "uint256",
              "name": "cost",
              "type": "uint256"
            }
          ],
          "internalType": "struct Dappcord.Channel",
          "name": "",
          "type": "tuple"
        }
      ],
      "stateMutability": "view",
      "type": "function"
    },
    {
      "inputs": [
        {
          "internalType": "uint256",
          "name": "",
          "type": "uint256"
        },
        {
          "internalType": "address",
          "name": "",
          "type": "address"
        }
      ],
      "name": "hasJoined",
      "outputs": [
        {
          "internalType": "bool",
          "name": "",
          "type": "bool"
        }
      ],
      "stateMutability": "view",
      "type": "function"
    },
    {
      "inputs": [
        {
          "internalType": "address",
          "name": "owner",
          "type": "address"
        },
        {
          "internalType": "address",
          "name": "operator",
          "type": "address"
        }
      ],
      "name": "isApprovedForAll",
      "outputs": [
        {
          "internalType": "bool",
          "name": "",
          "type": "bool"
        }
      ],
      "stateMutability": "view",
      "type": "function"
    },
    {
      "inputs": [
        {
          "internalType": "uint256",
          "name": "_id",
          "type": "uint256"
        }
      ],
      "name": "mint",
      "outputs": [],
      "stateMutability": "payable",
      "type": "function"
    },
    {
      "inputs": [],
      "name": "name",
      "outputs": [
        {
          "internalType": "string",
          "name": "",
          "type": "string"
        }
      ],
      "stateMutability": "view",
      "type": "function"
    },
    {
      "inputs": [],
      "name": "owner",
      "outputs": [
        {
          "internalType": "address",
          "name": "",
          "type": "address"
        }
      ],
      "stateMutability": "view",
      "type": "function"
    },
    {
      "inputs": [
        {
          "internalType": "uint256",
          "name": "tokenId",
          "type": "uint256"
        }
      ],
      "name": "ownerOf",
      "outputs": [
        {
          "internalType": "address",
          "name": "",
          "type": "address"
        }
      ],
      "stateMutability": "view",
      "type": "function"
    },
    {
      "inputs": [
        {
          "internalType": "address",
          "name": "from",
          "type": "address"
        },
        {
          "internalType": "address",
          "name": "to",
          "type": "address"
        },
        {
          "internalType": "uint256",
          "name": "tokenId",
          "type": "uint256"
        }
      ],
      "name": "safeTransferFrom",
      "outputs": [],
      "stateMutability": "nonpayable",
      "type": "function"
    },
    {
      "inputs": [
        {
          "internalType": "address",
          "name": "from",
          "type": "address"
        },
        {
          "internalType": "address",
          "name": "to",
          "type": "address"
        },
        {
          "internalType": "uint256",
          "name": "tokenId",
          "type": "uint256"
        },
        {
          "internalType": "bytes",
          "name": "data",
          "type": "bytes"
        }
      ],
      "name": "safeTransferFrom",
      "outputs": [],
      "stateMutability": "nonpayable",
      "type": "function"
    },
    {
      "inputs": [
        {
          "internalType": "address",
          "name": "operator",
          "type": "address"
        },
        {
          "internalType": "bool",
          "name": "approved",
          "type": "bool"
        }
      ],
      "name": "setApprovalForAll",
      "outputs": [],
      "stateMutability": "nonpayable",
      "type": "function"
    },
    {
      "inputs": [
        {
          "internalType": "bytes4",
          "name": "interfaceId",
          "type": "bytes4"
        }
      ],
      "name": "supportsInterface",
      "outputs": [
        {
          "internalType": "bool",
          "name": "",
          "type": "bool"
        }
      ],
      "stateMutability": "view",
      "type": "function"
    },
    {
      "inputs": [],
      "name": "symbol",
      "outputs": [
        {
          "internalType": "string",
          "name": "",
          "type": "string"
        }
      ],
      "stateMutability": "view",
      "type": "function"
    },
    {
      "inputs": [
        {
          "internalType": "uint256",
          "name": "tokenId",
          "type": "uint256"
        }
      ],
      "name": "tokenURI",
      "outputs": [
        {
          "internalType": "string",
          "name": "",
          "type": "string"
        }
      ],
      "stateMutability": "view",
      "type": "function"
    },
    {
      "inputs": [],
      "name": "totalChannels",
      "outputs": [
        {
          "internalType": "uint256",
          "name": "",
          "type": "uint256"
        }
      ],
      "stateMutability": "view",
      "type": "function"
    },
    {
      "inputs": [],
      "name": "totalSupply",
      "outputs": [
        {
          "internalType": "uint256",
          "name": "",
          "type": "uint256"
        }
      ],
      "stateMutability": "view",
      "type": "function"
    },
    {
      "inputs": [
        {
          "internalType": "address",
          "name": "from",
          "type": "address"
        },
        {
          "internalType": "address",
          "name": "to",
          "type": "address"
        },
        {
          "internalType": "uint256",
          "name": "tokenId",
          "type": "uint256"
        }
      ],
      "name": "transferFrom",
      "outputs": [],
      "stateMutability": "nonpayable",
      "type": "function"
    },
    {
      "inputs": [],
      "name": "withdraw",
      "outputs": [],
      "stateMutability": "nonpayable",
      "type": "function"
    }
  ],
  "bytecode": "0x60806040523480156200001157600080fd5b50604051620037c4380380620037c483398181016040528101906200003791906200023b565b818181600090816200004a91906200050b565b5080600190816200005c91906200050b565b50505033600860006101000a81548173ffffffffffffffffffffffffffffffffffffffff021916908373ffffffffffffffffffffffffffffffffffffffff1602179055505050620005f2565b6000604051905090565b600080fd5b600080fd5b600080fd5b600080fd5b6000601f19601f8301169050919050565b7f4e487b7100000000000000000000000000000000000000000000000000000000600052604160045260246000fd5b6200011182620000c6565b810181811067ffffffffffffffff82111715620001335762000132620000d7565b5b80604052505050565b600062000148620000a8565b905062000156828262000106565b919050565b600067ffffffffffffffff821115620001795762000178620000d7565b5b6200018482620000c6565b9050602081019050919050565b60005b83811015620001b157808201518184015260208101905062000194565b60008484015250505050565b6000620001d4620001ce846200015b565b6200013c565b905082815260208101848484011115620001f357620001f2620000c1565b5b6200020084828562000191565b509392505050565b600082601f83011262000220576200021f620000bc565b5b815162000232848260208601620001bd565b91505092915050565b60008060408385031215620002555762000254620000b2565b5b600083015167ffffffffffffffff811115620002765762000275620000b7565b5b620002848582860162000208565b925050602083015167ffffffffffffffff811115620002a857620002a7620000b7565b5b620002b68582860162000208565b9150509250929050565b600081519050919050565b7f4e487b7100000000000000000000000000000000000000000000000000000000600052602260045260246000fd5b600060028204905060018216806200031357607f821691505b602082108103620003295762000328620002cb565b5b50919050565b60008190508160005260206000209050919050565b60006020601f8301049050919050565b600082821b905092915050565b600060088302620003937fffffffffffffffffffffffffffffffffffffffffffffffffffffffffffffffff8262000354565b6200039f868362000354565b95508019841693508086168417925050509392505050565b6000819050919050565b6000819050919050565b6000620003ec620003e6620003e084620003b7565b620003c1565b620003b7565b9050919050565b6000819050919050565b6200040883620003cb565b620004206200041782620003f3565b84845462000361565b825550505050565b600090565b6200043762000428565b62000444818484620003fd565b505050565b5b818110156200046c57620004606000826200042d565b6001810190506200044a565b5050565b601f821115620004bb5762000485816200032f565b620004908462000344565b81016020851015620004a0578190505b620004b8620004af8562000344565b83018262000449565b50505b505050565b600082821c905092915050565b6000620004e060001984600802620004c0565b1980831691505092915050565b6000620004fb8383620004cd565b9150826002028217905092915050565b6200051682620002c0565b67ffffffffffffffff811115620005325762000531620000d7565b5b6200053e8254620002fa565b6200054b82828562000470565b600060209050601f8311600181146200058357600084156200056e578287015190505b6200057a8582620004ed565b865550620005ea565b601f19841662000593866200032f565b60005b82811015620005bd5784890151825560018201915060208501945060208101905062000596565b86831015620005dd5784890151620005d9601f891682620004cd565b8355505b6001600288020188555050505b505050505050565b6131c280620006026000396000f3fe6080604052600436106101355760003560e01c806370a08231116100ab578063a14865cd1161006f578063a14865cd1461042d578063a22cb46514610456578063b88d4fde1461047f578063c87b56dd146104a8578063e5949b5d146104e5578063e985e9c51461052457610135565b806370a08231146103535780637734a9f6146103905780638da5cb5b146103bb57806395d89b41146103e6578063a0712d681461041157610135565b806318160ddd116100fd57806318160ddd1461024557806323b872dd146102705780633ccfd60b1461029957806342842e0e146102b05780636352211e146102d9578063681947191461031657610135565b806301ffc9a71461013a57806306fdde0314610177578063081812fc146101a2578063095ea7b3146101df57806310df54a014610208575b600080fd5b34801561014657600080fd5b50610161600480360381019061015c9190611f3d565b610561565b60405161016e9190611f85565b60405180910390f35b34801561018357600080fd5b5061018c610643565b6040516101999190612030565b60405180910390f35b3480156101ae57600080fd5b506101c960048036038101906101c49190612088565b6106d5565b6040516101d691906120f6565b60405180910390f35b3480156101eb57600080fd5b506102066004803603810190610201919061213d565b61071b565b005b34801561021457600080fd5b5061022f600480360381019061022a9190612088565b610832565b60405161023c9190612226565b60405180910390f35b34801561025157600080fd5b5061025a610905565b6040516102679190612257565b60405180910390f35b34801561027c57600080fd5b5061029760048036038101906102929190612272565b61090b565b005b3480156102a557600080fd5b506102ae61096b565b005b3480156102bc57600080fd5b506102d760048036038101906102d29190612272565b610a60565b005b3480156102e557600080fd5b5061030060048036038101906102fb9190612088565b610a80565b60405161030d91906120f6565b60405180910390f35b34801561032257600080fd5b5061033d600480360381019061033891906122c5565b610b06565b60405161034a9190611f85565b60405180910390f35b34801561035f57600080fd5b5061037a60048036038101906103759190612305565b610b35565b6040516103879190612257565b60405180910390f35b34801561039c57600080fd5b506103a5610bec565b6040516103b29190612257565b60405180910390f35b3480156103c757600080fd5b506103d0610bf2565b6040516103dd91906120f6565b60405180910390f35b3480156103f257600080fd5b506103fb610c18565b6040516104089190612030565b60405180910390f35b61042b60048036038101906104269190612088565b610caa565b005b34801561043957600080fd5b50610454600480360381019061044f9190612467565b610de7565b005b34801561046257600080fd5b5061047d600480360381019061047891906124ef565b610ebc565b005b34801561048b57600080fd5b506104a660048036038101906104a191906125d0565b610ed2565b005b3480156104b457600080fd5b506104cf60048036038101906104ca9190612088565b610f34565b6040516104dc9190612030565b60405180910390f35b3480156104f157600080fd5b5061050c60048036038101906105079190612088565b610f9c565b60405161051b93929190612653565b60405180910390f35b34801561053057600080fd5b5061054b60048036038101906105469190612691565b61104e565b6040516105589190611f85565b60405180910390f35b60007f80ac58cd000000000000000000000000000000000000000000000000000000007bffffffffffffffffffffffffffffffffffffffffffffffffffffffff1916827bffffffffffffffffffffffffffffffffffffffffffffffffffffffff1916148061062c57507f5b5e139f000000000000000000000000000000000000000000000000000000007bffffffffffffffffffffffffffffffffffffffffffffffffffffffff1916827bffffffffffffffffffffffffffffffffffffffffffffffffffffffff1916145b8061063c575061063b826110e2565b5b9050919050565b60606000805461065290612700565b80601f016020809104026020016040519081016040528092919081815260200182805461067e90612700565b80156106cb5780601f106106a0576101008083540402835291602001916106cb565b820191906000526020600020905b8154815290600101906020018083116106ae57829003601f168201915b5050505050905090565b60006106e08261114c565b6004600083815260200190815260200160002060009054906101000a900473ffffffffffffffffffffffffffffffffffffffff169050919050565b600061072682610a80565b90508073ffffffffffffffffffffffffffffffffffffffff168373ffffffffffffffffffffffffffffffffffffffff1603610796576040517f08c379a000000000000000000000000000000000000000000000000000000000815260040161078d906127a3565b60405180910390fd5b8073ffffffffffffffffffffffffffffffffffffffff166107b5611197565b73ffffffffffffffffffffffffffffffffffffffff1614806107e457506107e3816107de611197565b61104e565b5b610823576040517f08c379a000000000000000000000000000000000000000000000000000000000815260040161081a90612835565b60405180910390fd5b61082d838361119f565b505050565b61083a611eb0565b600960008381526020019081526020016000206040518060600160405290816000820154815260200160018201805461087290612700565b80601f016020809104026020016040519081016040528092919081815260200182805461089e90612700565b80156108eb5780601f106108c0576101008083540402835291602001916108eb565b820191906000526020600020905b8154815290600101906020018083116108ce57829003601f168201915b505050505081526020016002820154815250509050919050565b60065481565b61091c610916611197565b82611258565b61095b576040517f08c379a0000000000000000000000000000000000000000000000000000000008152600401610952906128c7565b60405180910390fd5b6109668383836112ed565b505050565b600860009054906101000a900473ffffffffffffffffffffffffffffffffffffffff1673ffffffffffffffffffffffffffffffffffffffff163373ffffffffffffffffffffffffffffffffffffffff16146109c557600080fd5b6000600860009054906101000a900473ffffffffffffffffffffffffffffffffffffffff1673ffffffffffffffffffffffffffffffffffffffff1647604051610a0d90612918565b60006040518083038185875af1925050503d8060008114610a4a576040519150601f19603f3d011682016040523d82523d6000602084013e610a4f565b606091505b5050905080610a5d57600080fd5b50565b610a7b83838360405180602001604052806000815250610ed2565b505050565b600080610a8c836115e6565b9050600073ffffffffffffffffffffffffffffffffffffffff168173ffffffffffffffffffffffffffffffffffffffff1603610afd576040517f08c379a0000000000000000000000000000000000000000000000000000000008152600401610af490612979565b60405180910390fd5b80915050919050565b600a6020528160005260406000206020528060005260406000206000915091509054906101000a900460ff1681565b60008073ffffffffffffffffffffffffffffffffffffffff168273ffffffffffffffffffffffffffffffffffffffff1603610ba5576040517f08c379a0000000000000000000000000000000000000000000000000000000008152600401610b9c90612a0b565b60405180910390fd5b600360008373ffffffffffffffffffffffffffffffffffffffff1673ffffffffffffffffffffffffffffffffffffffff168152602001908152602001600020549050919050565b60075481565b600860009054906101000a900473ffffffffffffffffffffffffffffffffffffffff1681565b606060018054610c2790612700565b80601f0160208091040260200160405190810160405280929190818152602001828054610c5390612700565b8015610ca05780601f10610c7557610100808354040283529160200191610ca0565b820191906000526020600020905b815481529060010190602001808311610c8357829003601f168201915b5050505050905090565b60008103610cb757600080fd5b600754811115610cc657600080fd5b60001515600a600083815260200190815260200160002060003373ffffffffffffffffffffffffffffffffffffffff1673ffffffffffffffffffffffffffffffffffffffff16815260200190815260200160002060009054906101000a900460ff16151514610d3457600080fd5b6009600082815260200190815260200160002060020154341015610d5757600080fd5b6001600a600083815260200190815260200160002060003373ffffffffffffffffffffffffffffffffffffffff1673ffffffffffffffffffffffffffffffffffffffff16815260200190815260200160002060006101000a81548160ff02191690831515021790555060066000815480929190610dd390612a5a565b9190505550610de433600654611623565b50565b600860009054906101000a900473ffffffffffffffffffffffffffffffffffffffff1673ffffffffffffffffffffffffffffffffffffffff163373ffffffffffffffffffffffffffffffffffffffff1614610e4157600080fd5b60076000815480929190610e5490612a5a565b91905055506040518060600160405280600754815260200183815260200182815250600960006007548152602001908152602001600020600082015181600001556020820151816001019081610eaa9190612c4e565b50604082015181600201559050505050565b610ece610ec7611197565b8383611641565b5050565b610ee3610edd611197565b83611258565b610f22576040517f08c379a0000000000000000000000000000000000000000000000000000000008152600401610f19906128c7565b60405180910390fd5b610f2e848484846117ad565b50505050565b6060610f3f8261114c565b6000610f49611809565b90506000815111610f695760405180602001604052806000815250610f94565b80610f7384611820565b604051602001610f84929190612d5c565b6040516020818303038152906040525b915050919050565b6009602052806000526040600020600091509050806000015490806001018054610fc590612700565b80601f0160208091040260200160405190810160405280929190818152602001828054610ff190612700565b801561103e5780601f106110135761010080835404028352916020019161103e565b820191906000526020600020905b81548152906001019060200180831161102157829003601f168201915b5050505050908060020154905083565b6000600560008473ffffffffffffffffffffffffffffffffffffffff1673ffffffffffffffffffffffffffffffffffffffff16815260200190815260200160002060008373ffffffffffffffffffffffffffffffffffffffff1673ffffffffffffffffffffffffffffffffffffffff16815260200190815260200160002060009054906101000a900460ff16905092915050565b60007f01ffc9a7000000000000000000000000000000000000000000000000000000007bffffffffffffffffffffffffffffffffffffffffffffffffffffffff1916827bffffffffffffffffffffffffffffffffffffffffffffffffffffffff1916149050919050565b611155816118ee565b611194576040517f08c379a000000000000000000000000000000000000000000000000000000000815260040161118b90612979565b60405180910390fd5b50565b600033905090565b816004600083815260200190815260200160002060006101000a81548173ffffffffffffffffffffffffffffffffffffffff021916908373ffffffffffffffffffffffffffffffffffffffff160217905550808273ffffffffffffffffffffffffffffffffffffffff1661121283610a80565b73ffffffffffffffffffffffffffffffffffffffff167f8c5be1e5ebec7d5bd14f71427d1e84f3dd0314c0f7b2291e5b200ac8c7c3b92560405160405180910390a45050565b60008061126483610a80565b90508073ffffffffffffffffffffffffffffffffffffffff168473ffffffffffffffffffffffffffffffffffffffff1614806112a657506112a5818561104e565b5b806112e457508373ffffffffffffffffffffffffffffffffffffffff166112cc846106d5565b73ffffffffffffffffffffffffffffffffffffffff16145b91505092915050565b8273ffffffffffffffffffffffffffffffffffffffff1661130d82610a80565b73ffffffffffffffffffffffffffffffffffffffff1614611363576040517f08c379a000000000000000000000000000000000000000000000000000000000815260040161135a90612df2565b60405180910390fd5b600073ffffffffffffffffffffffffffffffffffffffff168273ffffffffffffffffffffffffffffffffffffffff16036113d2576040517f08c379a00000000000000000000000000000000000000000000000000000000081526004016113c990612e84565b60405180910390fd5b6113df838383600161192f565b8273ffffffffffffffffffffffffffffffffffffffff166113ff82610a80565b73ffffffffffffffffffffffffffffffffffffffff1614611455576040517f08c379a000000000000000000000000000000000000000000000000000000000815260040161144c90612df2565b60405180910390fd5b6004600082815260200190815260200160002060006101000a81549073ffffffffffffffffffffffffffffffffffffffff02191690556001600360008573ffffffffffffffffffffffffffffffffffffffff1673ffffffffffffffffffffffffffffffffffffffff168152602001908152602001600020600082825403925050819055506001600360008473ffffffffffffffffffffffffffffffffffffffff1673ffffffffffffffffffffffffffffffffffffffff16815260200190815260200160002060008282540192505081905550816002600083815260200190815260200160002060006101000a81548173ffffffffffffffffffffffffffffffffffffffff021916908373ffffffffffffffffffffffffffffffffffffffff160217905550808273ffffffffffffffffffffffffffffffffffffffff168473ffffffffffffffffffffffffffffffffffffffff167fddf252ad1be2c89b69c2b068fc378daa952ba7f163c4a11628f55a4df523b3ef60405160405180910390a46115e18383836001611935565b505050565b60006002600083815260200190815260200160002060009054906101000a900473ffffffffffffffffffffffffffffffffffffffff169050919050565b61163d82826040518060200160405280600081525061193b565b5050565b8173ffffffffffffffffffffffffffffffffffffffff168373ffffffffffffffffffffffffffffffffffffffff16036116af576040517f08c379a00000000000000000000000000000000000000000000000000000000081526004016116a690612ef0565b60405180910390fd5b80600560008573ffffffffffffffffffffffffffffffffffffffff1673ffffffffffffffffffffffffffffffffffffffff16815260200190815260200160002060008473ffffffffffffffffffffffffffffffffffffffff1673ffffffffffffffffffffffffffffffffffffffff16815260200190815260200160002060006101000a81548160ff0219169083151502179055508173ffffffffffffffffffffffffffffffffffffffff168373ffffffffffffffffffffffffffffffffffffffff167f17307eab39ab6107e8899845ad3d59bd9653f200f220920489ca2b5937696c31836040516117a09190611f85565b60405180910390a3505050565b6117b88484846112ed565b6117c484848484611996565b611803576040517f08c379a00000000000000000000000000000000000000000000000000000000081526004016117fa90612f82565b60405180910390fd5b50505050565b606060405180602001604052806000815250905090565b60606000600161182f84611b1d565b01905060008167ffffffffffffffff81111561184e5761184d61233c565b5b6040519080825280601f01601f1916602001820160405280156118805781602001600182028036833780820191505090505b509050600082602001820190505b6001156118e3578080600190039150507f3031323334353637383961626364656600000000000000000000000000000000600a86061a8153600a85816118d7576118d6612fa2565b5b0494506000850361188e575b819350505050919050565b60008073ffffffffffffffffffffffffffffffffffffffff16611910836115e6565b73ffffffffffffffffffffffffffffffffffffffff1614159050919050565b50505050565b50505050565b6119458383611c70565b6119526000848484611996565b611991576040517f08c379a000000000000000000000000000000000000000000000000000000000815260040161198890612f82565b60405180910390fd5b505050565b60006119b78473ffffffffffffffffffffffffffffffffffffffff16611e8d565b15611b10578373ffffffffffffffffffffffffffffffffffffffff1663150b7a026119e0611197565b8786866040518563ffffffff1660e01b8152600401611a029493929190613026565b6020604051808303816000875af1925050508015611a3e57506040513d601f19601f82011682018060405250810190611a3b9190613087565b60015b611ac0573d8060008114611a6e576040519150601f19603f3d011682016040523d82523d6000602084013e611a73565b606091505b506000815103611ab8576040517f08c379a0000000000000000000000000000000000000000000000000000000008152600401611aaf90612f82565b60405180910390fd5b805181602001fd5b63150b7a0260e01b7bffffffffffffffffffffffffffffffffffffffffffffffffffffffff1916817bffffffffffffffffffffffffffffffffffffffffffffffffffffffff191614915050611b15565b600190505b949350505050565b600080600090507a184f03e93ff9f4daa797ed6e38ed64bf6a1f0100000000000000008310611b7b577a184f03e93ff9f4daa797ed6e38ed64bf6a1f0100000000000000008381611b7157611b70612fa2565b5b0492506040810190505b6d04ee2d6d415b85acef81000000008310611bb8576d04ee2d6d415b85acef81000000008381611bae57611bad612fa2565b5b0492506020810190505b662386f26fc100008310611be757662386f26fc100008381611bdd57611bdc612fa2565b5b0492506010810190505b6305f5e1008310611c10576305f5e1008381611c0657611c05612fa2565b5b0492506008810190505b6127108310611c35576127108381611c2b57611c2a612fa2565b5b0492506004810190505b60648310611c585760648381611c4e57611c4d612fa2565b5b0492506002810190505b600a8310611c67576001810190505b80915050919050565b600073ffffffffffffffffffffffffffffffffffffffff168273ffffffffffffffffffffffffffffffffffffffff1603611cdf576040517f08c379a0000000000000000000000000000000000000000000000000000000008152600401611cd690613100565b60405180910390fd5b611ce8816118ee565b15611d28576040517f08c379a0000000000000000000000000000000000000000000000000000000008152600401611d1f9061316c565b60405180910390fd5b611d3660008383600161192f565b611d3f816118ee565b15611d7f576040517f08c379a0000000000000000000000000000000000000000000000000000000008152600401611d769061316c565b60405180910390fd5b6001600360008473ffffffffffffffffffffffffffffffffffffffff1673ffffffffffffffffffffffffffffffffffffffff16815260200190815260200160002060008282540192505081905550816002600083815260200190815260200160002060006101000a81548173ffffffffffffffffffffffffffffffffffffffff021916908373ffffffffffffffffffffffffffffffffffffffff160217905550808273ffffffffffffffffffffffffffffffffffffffff16600073ffffffffffffffffffffffffffffffffffffffff167fddf252ad1be2c89b69c2b068fc378daa952ba7f163c4a11628f55a4df523b3ef60405160405180910390a4611e89600083836001611935565b5050565b6000808273ffffffffffffffffffffffffffffffffffffffff163b119050919050565b60405180606001604052806000815260200160608152602001600081525090565b6000604051905090565b600080fd5b600080fd5b60007fffffffff0000000000000000000000000000000000000000000000000000000082169050919050565b611f1a81611ee5565b8114611f2557600080fd5b50565b600081359050611f3781611f11565b92915050565b600060208284031215611f5357611f52611edb565b5b6000611f6184828501611f28565b91505092915050565b60008115159050919050565b611f7f81611f6a565b82525050565b6000602082019050611f9a6000830184611f76565b92915050565b600081519050919050565b600082825260208201905092915050565b60005b83811015611fda578082015181840152602081019050611fbf565b60008484015250505050565b6000601f19601f8301169050919050565b600061200282611fa0565b61200c8185611fab565b935061201c818560208601611fbc565b61202581611fe6565b840191505092915050565b6000602082019050818103600083015261204a8184611ff7565b905092915050565b6000819050919050565b61206581612052565b811461207057600080fd5b50565b6000813590506120828161205c565b92915050565b60006020828403121561209e5761209d611edb565b5b60006120ac84828501612073565b91505092915050565b600073ffffffffffffffffffffffffffffffffffffffff82169050919050565b60006120e0826120b5565b9050919050565b6120f0816120d5565b82525050565b600060208201905061210b60008301846120e7565b92915050565b61211a816120d5565b811461212557600080fd5b50565b60008135905061213781612111565b92915050565b6000806040838503121561215457612153611edb565b5b600061216285828601612128565b925050602061217385828601612073565b9150509250929050565b61218681612052565b82525050565b600082825260208201905092915050565b60006121a882611fa0565b6121b2818561218c565b93506121c2818560208601611fbc565b6121cb81611fe6565b840191505092915050565b60006060830160008301516121ee600086018261217d565b5060208301518482036020860152612206828261219d565b915050604083015161221b604086018261217d565b508091505092915050565b6000602082019050818103600083015261224081846121d6565b905092915050565b61225181612052565b82525050565b600060208201905061226c6000830184612248565b92915050565b60008060006060848603121561228b5761228a611edb565b5b600061229986828701612128565b93505060206122aa86828701612128565b92505060406122bb86828701612073565b9150509250925092565b600080604083850312156122dc576122db611edb565b5b60006122ea85828601612073565b92505060206122fb85828601612128565b9150509250929050565b60006020828403121561231b5761231a611edb565b5b600061232984828501612128565b91505092915050565b600080fd5b600080fd5b7f4e487b7100000000000000000000000000000000000000000000000000000000600052604160045260246000fd5b61237482611fe6565b810181811067ffffffffffffffff821117156123935761239261233c565b5b80604052505050565b60006123a6611ed1565b90506123b2828261236b565b919050565b600067ffffffffffffffff8211156123d2576123d161233c565b5b6123db82611fe6565b9050602081019050919050565b82818337600083830152505050565b600061240a612405846123b7565b61239c565b90508281526020810184848401111561242657612425612337565b5b6124318482856123e8565b509392505050565b600082601f83011261244e5761244d612332565b5b813561245e8482602086016123f7565b91505092915050565b6000806040838503121561247e5761247d611edb565b5b600083013567ffffffffffffffff81111561249c5761249b611ee0565b5b6124a885828601612439565b92505060206124b985828601612073565b9150509250929050565b6124cc81611f6a565b81146124d757600080fd5b50565b6000813590506124e9816124c3565b92915050565b6000806040838503121561250657612505611edb565b5b600061251485828601612128565b9250506020612525858286016124da565b9150509250929050565b600067ffffffffffffffff82111561254a5761254961233c565b5b61255382611fe6565b9050602081019050919050565b600061257361256e8461252f565b61239c565b90508281526020810184848401111561258f5761258e612337565b5b61259a8482856123e8565b509392505050565b600082601f8301126125b7576125b6612332565b5b81356125c7848260208601612560565b91505092915050565b600080600080608085870312156125ea576125e9611edb565b5b60006125f887828801612128565b945050602061260987828801612128565b935050604061261a87828801612073565b925050606085013567ffffffffffffffff81111561263b5761263a611ee0565b5b612647878288016125a2565b91505092959194509250565b60006060820190506126686000830186612248565b818103602083015261267a8185611ff7565b90506126896040830184612248565b949350505050565b600080604083850312156126a8576126a7611edb565b5b60006126b685828601612128565b92505060206126c785828601612128565b9150509250929050565b7f4e487b7100000000000000000000000000000000000000000000000000000000600052602260045260246000fd5b6000600282049050600182168061271857607f821691505b60208210810361272b5761272a6126d1565b5b50919050565b7f4552433732313a20617070726f76616c20746f2063757272656e74206f776e6560008201527f7200000000000000000000000000000000000000000000000000000000000000602082015250565b600061278d602183611fab565b915061279882612731565b604082019050919050565b600060208201905081810360008301526127bc81612780565b9050919050565b7f4552433732313a20617070726f76652063616c6c6572206973206e6f7420746f60008201527f6b656e206f776e6572206f7220617070726f76656420666f7220616c6c000000602082015250565b600061281f603d83611fab565b915061282a826127c3565b604082019050919050565b6000602082019050818103600083015261284e81612812565b9050919050565b7f4552433732313a2063616c6c6572206973206e6f7420746f6b656e206f776e6560008201527f72206f7220617070726f76656400000000000000000000000000000000000000602082015250565b60006128b1602d83611fab565b91506128bc82612855565b604082019050919050565b600060208201905081810360008301526128e0816128a4565b9050919050565b600081905092915050565b50565b60006129026000836128e7565b915061290d826128f2565b600082019050919050565b6000612923826128f5565b9150819050919050565b7f4552433732313a20696e76616c696420746f6b656e2049440000000000000000600082015250565b6000612963601883611fab565b915061296e8261292d565b602082019050919050565b6000602082019050818103600083015261299281612956565b9050919050565b7f4552433732313a2061646472657373207a65726f206973206e6f74206120766160008201527f6c6964206f776e65720000000000000000000000000000000000000000000000602082015250565b60006129f5602983611fab565b9150612a0082612999565b604082019050919050565b60006020820190508181036000830152612a24816129e8565b9050919050565b7f4e487b7100000000000000000000000000000000000000000000000000000000600052601160045260246000fd5b6000612a6582612052565b91507fffffffffffffffffffffffffffffffffffffffffffffffffffffffffffffffff8203612a9757612a96612a2b565b5b600182019050919050565b60008190508160005260206000209050919050565b60006020601f8301049050919050565b600082821b905092915050565b600060088302612b047fffffffffffffffffffffffffffffffffffffffffffffffffffffffffffffffff82612ac7565b612b0e8683612ac7565b95508019841693508086168417925050509392505050565b6000819050919050565b6000612b4b612b46612b4184612052565b612b26565b612052565b9050919050565b6000819050919050565b612b6583612b30565b612b79612b7182612b52565b848454612ad4565b825550505050565b600090565b612b8e612b81565b612b99818484612b5c565b505050565b5b81811015612bbd57612bb2600082612b86565b600181019050612b9f565b5050565b601f821115612c0257612bd381612aa2565b612bdc84612ab7565b81016020851015612beb578190505b612bff612bf785612ab7565b830182612b9e565b50505b505050565b600082821c905092915050565b6000612c2560001984600802612c07565b1980831691505092915050565b6000612c3e8383612c14565b9150826002028217905092915050565b612c5782611fa0565b67ffffffffffffffff811115612c7057612c6f61233c565b5b612c7a8254612700565b612c85828285612bc1565b600060209050601f831160018114612cb85760008415612ca6578287015190505b612cb08582612c32565b865550612d18565b601f198416612cc686612aa2565b60005b82811015612cee57848901518255600182019150602085019450602081019050612cc9565b86831015612d0b5784890151612d07601f891682612c14565b8355505b6001600288020188555050505b505050505050565b600081905092915050565b6000612d3682611fa0565b612d408185612d20565b9350612d50818560208601611fbc565b80840191505092915050565b6000612d688285612d2b565b9150612d748284612d2b565b91508190509392505050565b7f4552433732313a207472616e736665722066726f6d20696e636f72726563742060008201527f6f776e6572000000000000000000000000000000000000000000000000000000602082015250565b6000612ddc602583611fab565b9150612de782612d80565b604082019050919050565b60006020820190508181036000830152612e0b81612dcf565b9050919050565b7f4552433732313a207472616e7366657220746f20746865207a65726f2061646460008201527f7265737300000000000000000000000000000000000000000000000000000000602082015250565b6000612e6e602483611fab565b9150612e7982612e12565b604082019050919050565b60006020820190508181036000830152612e9d81612e61565b9050919050565b7f4552433732313a20617070726f766520746f2063616c6c657200000000000000600082015250565b6000612eda601983611fab565b9150612ee582612ea4565b602082019050919050565b60006020820190508181036000830152612f0981612ecd565b9050919050565b7f4552433732313a207472616e7366657220746f206e6f6e20455243373231526560008201527f63656976657220696d706c656d656e7465720000000000000000000000000000602082015250565b6000612f6c603283611fab565b9150612f7782612f10565b604082019050919050565b60006020820190508181036000830152612f9b81612f5f565b9050919050565b7f4e487b7100000000000000000000000000000000000000000000000000000000600052601260045260246000fd5b600081519050919050565b600082825260208201905092915050565b6000612ff882612fd1565b6130028185612fdc565b9350613012818560208601611fbc565b61301b81611fe6565b840191505092915050565b600060808201905061303b60008301876120e7565b61304860208301866120e7565b6130556040830185612248565b81810360608301526130678184612fed565b905095945050505050565b60008151905061308181611f11565b92915050565b60006020828403121561309d5761309c611edb565b5b60006130ab84828501613072565b91505092915050565b7f4552433732313a206d696e7420746f20746865207a65726f2061646472657373600082015250565b60006130ea602083611fab565b91506130f5826130b4565b602082019050919050565b60006020820190508181036000830152613119816130dd565b9050919050565b7f4552433732313a20746f6b656e20616c7265616479206d696e74656400000000600082015250565b6000613156601c83611fab565b915061316182613120565b602082019050919050565b6000602082019050818103600083015261318581613149565b905091905056fea2646970667358221220ed8656b641499994c5f1cf79f2ca045a4bb39a9c9dee39633b8d6e6b78362ec164736f6c63430008110033",
  "linkReferences": {},
  "deployedLinkReferences": {}
}